S01700004763634170706C69636174696F6E322E737265635A
S11300000C943B000C9450000C9450000C94500041
S11300100C9450000C9450000C9450000C9450001C
S11300200C9450000C9450000C9450000C9450000C
S11300300C9450000C9450000C9450000C945000FC
S11300400C9450000C9450000C9450000C945000EC
S11300500C9450000C9450000C9450000C945000DC
S11300600C9450000C945000E005FE051A06360668
S113007052066E068A0611241FBECFEFD8E0DEBFFB
S1130080CDBF12E0A0E0B1E0E4E2FFE002C00590E1
S11300900D92AA32B107D9F70E940B010C94900774
S11300A00C940000299A85E08A95F1F700002998BC
S11300B00895CF93C82F662311F0289A01C0289879
S11300C0549A559A569A579A5F985E985D985C9898
S11300D0CC230CF45F9AC6FD5E9AC5FD5D9AC4FDFF
S11300E05C9A0E9452005F985E985D985C98C3FD8C
S11300F05F9AC2FD5E9AC1FD5D9AC0FD5C9A0E9442
S113010052005C9A5D9A5E9A5F9A8FE39FE1019731
S1130110F1F700C00000CF91089560E00E945900FB
S11301200895611104C080580E948D000895805480
S11301300E948D00089581E00E948D00089561E081
S11301400E9459000895CF93DF93EC012196FC019E
S11301508081882329F00E949F0089918111FBCF1F
S1130160DF91CF910895CF93C82F209A559A219A61
S1130170549A559A569A579A8FEF99EF0197F1F737
S113018000C000005D9A5C9A0E9452008FE19EE4D8
S11301900197F1F700C000000E9452008FEF90E039
S11301A00197F1F700C000000E9452008FEF90E029
S11301B00197F1F700C000005C980E9452008FEF95
S11301C090E00197F1F700C0000088E20E948D00E2
S11301D088E00E948D000E949B0086E00E948D00B2
S11301E08C2F0E948D00CF9108958FE00E94B30060
S11301F00E949B00249A239A229A2C982B982A983E
S113020050985198529853982598589A599A5A9AAE
S11302105B9A2D9A0895CF93DF93CDB7DEB72A97D3
S11302200FB6F894DEBF0FBECDBF0E94F5000E944A
S11302309B0080E091E00E94A30061E080E00E94C6
S113024091008AE091E00E94A30060E08FE00E94A8
S113025091008AE20E949F0077247394C12CB12CF0
S1130260812C912CD12CF12CA12C01E068946624D2
S113027061F8E62C11E04A990AC10F5F073091F04A
S1130280033009F460C028F4013061F0023099F1C0
S1130290FAC0053009F4A7C008F47DC0063009F49B
S11302A0CAC0F1C02FEF64E38CE02150604080406D
S11302B0E1F700C0000060E080E00E9491000E942D
S11302C09B0080E091E00E94A300612F80E00E94E7
S11302D091008AE091E00E94A30060E08FE00E9418
S11302E091008AE20E949F004B9BE6C0C12C912C96
S11302F0D12C01E072C19FEFE4E32CE09150E04087
S11303002040E1F700C0000060E080E00E9491001E
S11303100E949B0080E091E00E94A300612F80E096
S11303200E9491008AE091E00E94A300612F8FE077
S11303300E9491008AE20E949F004B9BE0C0C12C66
S1130340912CD12C4AC16FEF84E39CE06150804032
S11303509040E1F700C0000060E080E00E9491005E
S11303600E949B0088E191E00E94A300612F80E03D
S11303700E94910080E291E00E94A30060E08FE07F
S11303800E9491008AE20E949F004B9BD2C0C12C24
S1130390912CD12C22C1EFEF24E36CE0E1502040FA
S11303A06040E1F700C0000060E080E00E9491003E
S11303B00E949B0088E191E00E94A300612F80E0ED
S11303C00E94910080E291E00E94A300612F8FE0DF
S11303D00E9491008AE20E949F004B9BC5C0C12CE1
S11303E0912CD12CFAC08FEF94E3ECE08150904033
S11303F0E040E1F700C0000060E080E00E9491006E
S11304000E949B0088E291E00E94A300612F80E09B
S11304100E94910085E391E00E94A30060E08FE0D8
S11304200E9491008AE20E949F004B9BAFC0C12CA6
S1130430912CD12CD2C02FEF64E38CE0215060408A
S11304408040E1F700C0000060E080E00E9491007D
S11304500E949B0088E291E00E94A300612F80E04B
S11304600E94910085E391E00E94A300612F8FE038
S11304700E9491008AE20E949F004B9B96C0C12C6F
S1130480912CD12CAAC0C12C912CD12C01E04B99D8
S1130490A4C0033009F450C030F4013081F00230BC
S11304A009F092C02FC0053009F473C008F45FC08E
S11304B0063009F47DC088C0C12C912CD12C0E9437
S11304C09B0060E080E00E94910082E491E00E9441
S11304D0A300612F80E00E9491008DE491E00E94CE
S11304E0A3004B9973C09FEFE4E32CE09150E040EC
S11304F02040E1F700C00000C12E01E06EC0C12C15
S1130500912CD12C0E949B0060E080E00E9491001D
S11305108AE091E00E94A3004B995AC06FEF84E3F4
S11305209CE0615080409040E1F700C0000002E090
S113053057C0C12C912CD12C0E949B0060E080E01C
S11305400E9491008FE591E00E94A3004B9942C064
S1130550EFEF24E36CE0E15020406040E1F700C09D
S11305600000D12E03E039C0C12C912CD12C0E9463
S11305709B0060E080E00E94910088E691E00E9488
S1130580A3004B9929C0912E04E027C0C12C912CC3
S1130590D12C0E949B0060E080E00E94910088E7DB
S11305A091E00E94A30005E018C0C12C912CD12C2D
S11305B00E949B0060E080E00E94910083E891E04B
S11305C00E94A30006E009C001E007C001E005C0E5
S11305D002E003C003E001C004E081E0F812B7C107
S11305E0489934C02C982B9A9FEFE3ED20E3915067
S11305F0E0402040E1F700C000002B986FEF83ED4E
S113060090E3615080409040E1F700C000002B9AD5
S1130610EFEF23ED60E3E15020406040E1F700C0DC
S113062000002B988FEF93EDE0E381509040E04081
S1130630E1F700C000002B9A2FEF6BE782E921500D
S113064060408040E1F700C000002B98499901C444
S11306502C982A9A9FEFE3ED20E39150E04020404C
S1130660E1F700C000002A986FEF83ED90E361503A
S113067080409040E1F700C000002A9AEFEF23ED9C
S113068060E3E15020406040E1F700C000002A9898
S11306908FEF93EDE0E381509040E040E1F700C03C
S11306A000002A9A2FEF6BE782E9215060408040D6
S11306B0E1F700C000002A98CCC32C989FEFE4E334
S11306C02CE09150E0402040E1F700C00000F62CFF
S11306D0C8C3489934C02C982B9A6FEF83ED90E3EC
S11306E0615080409040E1F700C000002B98EFEF8C
S11306F063ED80E3E15060408040E1F700C000001A
S11307002B9A9FEFE3ED60E39150E0406040E1F706
S113071000C000002B988FEF93EDE0E381509040F0
S1130720E040E1F700C000002B9A6FEF8BE792E9FD
S1130730615080409040E1F700C000002B98499937
S113074034C02C982A9AEFEF63ED80E3E1506040C7
S11307508040E1F700C000002A989FEFE3ED60E3DA
S11307609150E0406040E1F700C000002A9A8FEF0A
S113077093EDE0E381509040E040E1F700C00000D9
S11307802A986FEF83ED90E3615080409040E1F749
S113079000C000002A9AEFEF6BE782E9E150604065
S11307A08040E1F700C000002A984B990BC02C98B8
S11307B09FEFE4E36CE09150E0406040E1F700C05B
S11307C00000FE2C2C982115310509F44FC380E05C
S11307D090E0E5E0EA95F1F70000019682179307AF
S11307E0C1F72C9ABA014115510509F455C380E0AB
S11307F090E0E5E0EA95F1F7000001968617970787
S1130800C0F32F5F3F4F4150510909F062CF29C314
S1130810489934C02C982B9A6FEF83ED90E3615084
S113082080409040E1F700C000002B98EFEF63EDAB
S113083080E3E15060408040E1F700C000002B9A63
S11308409FEFE3ED60E39150E0406040E1F700C0CA
S113085000002B988FEF93EDE0E381509040E0404F
S1130860E1F700C000002B9A6FEF8BE792E961502B
S113087080409040E1F700C000002B98499934C0B3
S11308802C982A9AEFEF63ED80E3E15060408040BA
S1130890E1F700C000002A989FEFE3ED60E3915078
S11308A0E0406040E1F700C000002A9A8FEF93ED2A
S11308B0E0E381509040E040E1F700C000002A9856
S11308C06FEF83ED90E3615080409040E1F700C00A
S11308D000002A9AEFEF6BE782E9E1506040804024
S11308E0E1F700C000002A984B990BC02C989FEFA9
S11308F0E4E36CE09150E0406040E1F700C00000A8
S1130900FE2C2C982115310509F4B3C280E090E047
S1130910E5E0EA95F1F70000019682179307C1F725
S11309202C9ABA014115510551F080E090E0E5E0C0
S1130930EA95F1F70000019686179707C0F3215056
S113094031094F5F5F4F2115310509F061CF22E076
S1130950F21201C02C9861E096121BC1612F8AE04B
S11309600E94910048991BC08FEF94E3ECE0815002
S11309709040E040E1F700C00000B3944AE0BE01BB
S11309806F5F7F4F8B2D90E00E945B07CE01019635
S11309900E94A3002CE3B21202C0BB24BA9449996A
S11309A026C06FEF84E39CE0615080409040E1F703
S11309B000C00000612F8CE00E9491008BE491E064
S11309C00E94A300612F8DE00E94910083944AE06D
S11309D0BE016F5F7F4F882D90E00E945B07CE01C0
S11309E001960E94A300ECE38E1609F445C21D99FA
S11309F04EC281101BC0B11022C04AE0BE016F5F1D
S1130A007F4F80E090E00E945B07CE0101960E9438
S1130A10A3004AE0BE016F5F7F4F80E090E00E9438
S1130A205B07CE0101960E94A30009C02BE32815A1
S1130A3008F428C204C00F2EFAE38F2EF02D6FEFB6
S1130A4083ED90E3615080409040E1F700C00000E6
S1130A50612F8DE00E9491004AE0BE016F5F7F4FDD
S1130A60882D90E00E945B07CE0101960E94A300AE
S1130A70811088C0612F8AE00E949100BA944AE0F4
S1130A80BE016F5F7F4F8B2D90E00E945B07CE010C
S1130A9001960E94A300612F8DE00E9491004AE01C
S1130AA0BE016F5F7F4F8BE390E00E945B07CE0136
S1130AB001960E94A300B110BECF4AE0BE016F5F51
S1130AC07F4F80E090E00E945B07CE0101960E9478
S1130AD0A300EFEF23ED60E3E15020406040E1F735
S1130AE000C00000612F8DE00E9491004AE0BE0129
S1130AF06F5F7F4F8BE390E00E945B07CE0101960E
S1130B000E94A3000F2EFAE38F2E912CF02D1DC00E
S1130B104AE0BE016F5F7F4F80E090E00E945B0778
S1130B20CE0101960E94A3000E949B0088E691E0FA
S1130B300E94A300612F8AE00E9491008EE891E058
S1130B400E94A30088248A9422C08FEF93EDE0E3EF
S1130B5081509040E040E1F700C00000612F8DE03B
S1130B600E9491004AE0BE016F5F7F4FC4010E9462
S1130B705B07CE0101960E94A30021E0821A91082E
S1130B8021F7C6CF8A946BE3681508F058CF912CEF
S1130B907EC181E0C812DCC04899DAC001C0D12C02
S1130BA0739498E0791661F0872D90E0FC013197F9
S1130BB0E730F10508F0CAC0EC5CFF4F0C94550710
S1130BC0EFEF24E36CE0E15020406040E1F700C027
S1130BD000000E949B0060E080E00E94910084E994
S1130BE091E00E94A300612F80E00E94910083EABB
S1130BF091E00E94A30077247394AAC08FEF94E33A
S1130C00ECE081509040E040E1F700C000000E9419
S1130C109B0060E080E00E94910083EA91E00E94E2
S1130C20A300612F80E00E94910082EB91E00E947A
S1130C30A3008EC02FEF64E38CE02150604080401D
S1130C40E1F700C000000E949B0060E080E00E9489
S1130C50910082EB91E00E94A300612F80E00E944A
S1130C60910089EB91E00E94A30072C09FEFE4E33E
S1130C702CE09150E0402040E1F700C000000E94C9
S1130C809B0060E080E00E94910089EB91E00E946B
S1130C90A300612F80E00E94910087EC91E00E9404
S1130CA0A30056C06FEF84E39CE061508040904005
S1130CB0E1F700C000000E949B0060E080E00E9419
S1130CC0910087EC91E00E94A300612F80E00E94D4
S1130CD0910083ED91E00E94A3003AC0EFEF24E37A
S1130CE06CE0E15020406040E1F700C000000E9449
S1130CF09B0060E080E00E94910083ED91E00E94FF
S1130D00A300612F80E00E9491008BED91E00E948E
S1130D10A3001EC08FEF94E3ECE081509040E040CC
S1130D20E1F700C000000E949B0060E080E00E94A8
S1130D3091008BED91E00E94A300612F80E00E945E
S1130D4091008AEE91E00E94A30002C0772473947C
S1130D5021E0D21290CA49998ECAA39464E0A616DF
S1130D6049F082E0A81679F193E0A91609F452C07B
S1130D70A21281CA612F8CE00E949100EFEF24E35C
S1130D806CE0E15020406040E1F700C0000060E00A
S1130D9080E00E9491000E949B008CEF91E00E94F1
S1130DA0A300612F80E00E9491008BE092E00E94FA
S1130DB0A30060E08FE00E9491008AE20E949F00FD
S1130DC0AA24A39458CA612F8CE00E9491008FEF4B
S1130DD094E3ECE081509040E040E1F700C0000073
S1130DE060E080E00E9491000E949B008CEF91E003
S1130DF00E94A300612F80E00E9491008BE092E0AA
S1130E000E94A300612F8FE00E9491008AE20E9459
S1130E109F0031CA612F8CE00E9491002FEF64E3A0
S1130E208CE0215060408040E1F700C0000060E0A9
S1130E3080E00E9491000E949B008AE192E00E945F
S1130E40A30060E08FE00E9491008AE20E949F006C
S1130E5012CA4B9B32CC45EB53E021E030E0F12E3B
S1130E6038CC40E050E026EB33E0D2CC2C9ABA01E7
S1130E70BECC2C9ABA0159CD1D9B06C088248A94F5
S1130E80D12C87CE912C03C088248A94912C91E094
S1130E90C91639F0D12CEFC92F5F3F4F415051098A
S1130EA018CC489B7CCED12CE6C9EE0FFF1F0590D1
S1130EB0F491E02D0994BB274A3031F4992322F4AC
S1130EC0BDE2909581959F4F0C946707BB27FB016A
S1130ED05527AA27880F991FAA1FA41710F0A41B2F
S1130EE083955051B9F7A05DAA3308F0A95DA19389
S1130EF0009779F7B111B1931192CB010C9480074B
S1130F00DC01FC01672F71917723E1F7329704C06C
S1130F107C916D9370836291AE17BF07C8F30895F7
S1070F20F894FFCF6F
S1130F24496E666F726D616365005679682E206F31
S1130F3464706F7665646900506F646D656E7500E6
S1130F444F64706F63657400566F6C6E7920736CB4
S1130F546F742D3100566F6C6E7920736C6F742D21
S1130F643200494E464F524D4143453A00506F7545
S1130F747A6974792048617264776172653A0050C1
S1130F844F44206D656E75004E6173746176656EB1
S1130F946920636173753A00504F44206D656E7522
S1130FA42D3500504F44206D656E752D360030305C
S1130FB43A30300031782041726475696E6F20557F
S1130FC44E4F003178204C434420646973706C653F
S1130FD46A003278204E4B5000317820706F74656B
S1130FE46E2E2031304B00357820746C6163697443
S1130FF46B6F00313878204C454400397820726591
S11310047A6973746F7220314B0070726F706F6AF7
S11310146F7661636920647261747900706F642D02
S1131024706F642D4D454E552D3100706F642D70D5
S11310346F642D4D454E552D3200706F642D706FC5
S10D1044642D4D454E552D33000078
S9030000FC
