:100000000C9434000C9451000C9451000C94510049
:100010000C9451000C9451000C9451000C9451001C
:100020000C9451000C9451000C9451000C9451000C
:100030000C9451000C9451000C9451000C945100FC
:100040000C9451000C9451000C9435010C946301F4
:100050000C9451000C9451000C9451000C945100DC
:100060000C9451000C94510011241FBECFEFD8E026
:10007000DEBFCDBF11E0A0E0B1E0E0E0FEE002C0F5
:1000800005900D92A63AB107D9F721E0A6EAB1E0B2
:1000900001C01D92AB3FB207E1F70E9489020C94A8
:1000A000FE060C940000299A85E08A95F1F700007D
:1000B00029980895CF93C82F662311F0289A01C07C
:1000C0002898549A559A569A579A5F985E985D98D0
:1000D0005C98C7FD5F9AC6FD5E9AC5FD5D9AC4FD3A
:1000E0005C9A0E9453005F985E985D985C98C3FD8F
:1000F0005F9AC2FD5E9AC1FD5D9AC0FD5C9A0E9446
:1001000053005C9A5D9A5E9A5F9A8FE39FE1019734
:10011000F1F700C00000CF91089528985D9A549897
:10012000559856985798299A85E08A95F1F70000D6
:100130004C9B02C080E101C080E04D9980624E99E5
:1001400080644F998068299895E09A95F1F70000AE
:10015000299A95E09A95F1F700004C9981604D99A4
:1001600082604E9984604F9988602998089560E074
:100170000C945A0061E00C945A00611102C080583E
:1001800001C080540C94B7000E948D0087FDFCCF05
:1001900085E18A95F1F700000E948D0090E00895B6
:1001A00081E00C94B70082E00C94B70061E00C94FD
:1001B0005A00CF93DF93EC018991882319F00E94B4
:1001C000D600FACFDF91CF910895CF93DF93FC0152
:1001D0008491EF012196882321F00E94D600FE0130
:1001E000F7CFDF91CF910895CF93C82F209A559ADA
:1001F000219A549A559A569A579A8FEF99EF0197E8
:10020000F1F700C000005D9A5C9A0E9453008FE1F4
:100210009EE40197F1F700C000000E9453008FEFA9
:1002200090E00197F1F700C000000E9453008FEFAB
:1002300090E00197F1F700C000005C980E94530025
:100240008FEF90E00197F1F700C0000088E20E9474
:10025000B70088E00E94B7000E94D00086E00E94AC
:10026000B7008C2FCF910C94B7001F920F920FB64E
:100270000F9211242F938F939F93EF93FF9380916D
:10028000C0009091C6008C71E091A801EF5FEF7102
:100290002091A701E21739F0E093A801F0E0E555BD
:1002A000FE4F908301C082E09091A601892B80933C
:1002B000A601FF91EF919F918F912F910F900FBE0B
:1002C0000F901F9018951F920F920FB60F92112446
:1002D0008F939F93EF93FF939091AA018091A9012F
:1002E000981769F0E091A901EF5FEF71E093A90120
:1002F000F0E0E553FE4F80818093C60005C08091F9
:10030000C1008F7D8093C100FF91EF919F918F91EC
:100310000F900FBE0F901F9018951092AA01109287
:10032000A9011092A8011092A70197FF03C022E033
:100330002093C00090789093C5008093C40088E912
:100340008093C10086E08093C20008959091A80137
:100350008091A7019817A9F09091A7019F5F9F71C5
:10036000E92FF0E0E555FE4F20818091A6019093A2
:10037000A7011092A60190E0982F8827820F911D67
:10038000089580E091E008959091AA019F5F9F7188
:100390002091A9019217E1F3E92FF0E0E553FE4F18
:1003A00080839093AA018091C10080628093C100F4
:1003B0000895CF93DF93EC018991882319F00E946F
:1003C000C401FACFDF91CF910895CF93DF93FC0161
:1003D0008491EF012196882321F00E94C401FE013F
:1003E000F7CFDF91CF91089587B18F7C87B988B11E
:1003F000806388B9E9EBF0E080818C7F808388E9B5
:100400008093B800089594EA9093BC009091BC004A
:1004100097FFFCCF8093BB0084E88093BC00809161
:10042000BC0087FFFCCF9091B900987F983119F0FC
:1004300081E0903409F480E008958093BB0084E863
:100440008093BC008091BC0087FFFCCF089584ECB2
:100450008093BC008091BC0087FFFCCF8091BB00E3
:10046000089584E88093BC008091BC0087FFFCCF96
:100470008091BB00089584E98093BC0008958FE0CB
:100480000E94F4000E94D000259A2D9852985A9A02
:1004900053985B9A23982B9AE9E6F0E0808182607A
:1004A0008083E89A249A239A229A2C982B982A9847
:1004B00050985198589A599A08950F931F9387FB13
:1004C00000F985FB10F9012784FB10F9012783FB54
:1004D00010F901270095880F00FB80F91F910F91FB
:1004E00008950F931F931F910F910895FC010FB66C
:1004F000F8946091F7017091F8018091F901909161
:10050000FA010FBE309721F0608371838283938359
:100510000895CF93DF93CDB7DEB72A970FB6F8943F
:10052000DEBF0FBECDBF80E090E00E9476020E9449
:100530003F020E94D00080E091E00E94D90061E07B
:1005400080E00E94BD008DE091E00E94D90061E052
:100550008FE00E94BD0060E08FE00E94BD008AE253
:100560000E94D6002D98D12C00E0C12CE12CFF2454
:10057000F39411E056EBA52E53E0B52E4A99E0C056
:100580001F5F173009F44EC0133009F473C020F513
:10059000113009F447C0123009F0D2C061E08CE09C
:1005A0000E94BD006FEF84E39CE06150804090406A
:1005B000E1F700C0000060E080E00E94BD000E9402
:1005C000D00080E091E00E94D90061E080E00E94CC
:1005D000BD008DE091E0ABC0153009F487C008F490
:1005E00067C0163009F0ACC061E08CE00E94BD002D
:1005F0006FEF84E39CE0615080409040E1F700C0E1
:10060000000060E080E00E94BD000E94D0008BE20C
:1006100091E00E94D90061E080E00E94BD0088E383
:1006200091E085C061E08CE00E94BD002FEF34E3D3
:100630004CE0215030404040E1F700C0000060E055
:1006400080E00E94BD000E94D00080E091E00E9406
:10065000D90061E080E00E94BD008DE091E00E9441
:10066000D90060E08FE00E94BD008AE20E94D600BF
:1006700011E066C061E08CE00E94BD002FEF34E322
:100680004CE0215030404040E1F700C0000060E005
:1006900080E00E94BD000E94D0008BE191E00E94AA
:1006A000D90061E080E00E94BD0083E291E03BC0A0
:1006B00061E08CE00E94BD006FEF84E39CE061503C
:1006C00080409040E1F700C0000060E080E00E94C0
:1006D000BD000E94D0008BE191E00E94D90061E052
:1006E00080E00E94BD0083E291E021C061E08CE0E7
:1006F0000E94BD002FEF34E34CE0215030404040D9
:10070000E1F700C0000060E080E00E94BD000E94B0
:10071000D0008BE291E00E94D90061E080E00E946D
:10072000BD0088E391E00E94D90060E003C00E9410
:10073000D90061E08FE00E94BD008AE20E94D600ED
:100740004B99FCC01330E1F128F41130A1F01230C4
:1007500009F1F4C0153009F4E7C008F4D6C016302A
:1007600009F0ECC00E94D00060E080E00E94BD0073
:100770008AE991E0E1C00E94D00060E080E00E9440
:10078000BD0085E491E00E94D90061E080E00E9414
:10079000BD00D4C00E94D00060E080E00E94BD0097
:1007A0008DE091E00E94D9004B99C8C02FEF34E34F
:1007B0004CE0215030404040E1F700C00000C1C093
:1007C0000E94D00060E080E00E94BD0086E591E0DC
:1007D0000E94D9004B99B2C0F39464E0F61202C0B3
:1007E000FF24F3948FEF94E32CE08150904020405D
:1007F000E1F700C0000032E0F31681F143E061E070
:10080000F41609F458C0F61299C08CE00E94BD009D
:100810004AE0BE016F5F7F4F81E090E00E94C90611
:10082000CE0101960E94D9008FEF94E32CE0815015
:1008300090402040E1F700C0000060E080E00E94AE
:10084000BD000E94D00081E691E00E94D90061E0E5
:1008500080E00E94BD008BE691E04DC061E08CE03D
:100860000E94BD004AE0BE016F5F7F4F82E090E0D2
:100870000E94C906CE0101960E94D9003FEF44E3D1
:100880006CE0315040406040E1F700C0000060E0A3
:1008900080E00E94BD000E94D00081E691E00E94AD
:1008A000D90061E080E00E94BD008BE691E00E94EB
:1008B000D90061E023C08CE00E94BD004AE0BE0187
:1008C0006F5F7F4F83E090E00E94C906CE010196E2
:1008D0000E94D9008FEF94E32CE08150904020409B
:1008E000E1F700C0000060E080E00E94BD000E94CF
:1008F000D00085E791E00E94D90060E08AE00E9484
:10090000BD008AE20E94D60019C00E94D00060E0BB
:1009100080E00E94BD008FE791E00E94D9004B99D2
:100920000DC0CC24C3940AC00E94D00060E080E0D7
:100930000E94BD008FE891E00E94D90031E0E312EF
:10094000B9C1489934C02C982B9A4FEF63ED80E3DE
:10095000415060408040E1F700C000002B989FEFBD
:1009600023ED30E3915020403040E1F700C000001B
:100970002B9A4FEF63ED80E3415060408040E1F7F8
:1009800000C000002B989FEF23ED30E391502040F2
:100990003040E1F700C000002B9A4FEF6BE782E98F
:1009A000415060408040E1F700C000002B98499919
:1009B00038C08AE991E00E94D9002C982A9A9FEFCA
:1009C00023ED30E3915020403040E1F700C00000BB
:1009D0002A984FEF63ED80E3415060408040E1F79B
:1009E00000C000002A9A9FEF23ED30E39150204091
:1009F0003040E1F700C000002A984FEF63ED80E33C
:100A0000415060408040E1F700C000002A9A9FEF0B
:100A10002BE732E9915020403040E1F700C0000060
:100A20002A984B990FC02C984FEF64E38CE041500B
:100A300060408040E1F700C0000042E0E42E86EB19
:100A400093E0A1C085EB93E0EE24E394A501481B5D
:100A5000590B489934C02C982B9A2FEF33ED60E353
:100A6000215030406040E1F700C000002B982FEF8C
:100A700033ED60E3215030406040E1F700C00000FA
:100A80002B9A2FEF33ED60E3215030406040E1F7C7
:100A900000C000002B982FEF33ED60E32150304071
:100AA0006040E1F700C000002B9A2FEF3BE762E9BE
:100AB000215030406040E1F700C000002B98499978
:100AC00034C02C982A9A2FEF33ED60E32150304048
:100AD0006040E1F700C000002A982FEF33ED60E39B
:100AE000215030406040E1F700C000002A9A2FEF0B
:100AF00033ED60E3215030406040E1F700C000007A
:100B00002A982FEF33ED60E3215030406040E1F749
:100B100000C000002A9A2FEF3BE762E921503040E5
:100B20006040E1F700C000002A984B990CC02C9857
:100B30002FEF34E36CE0215030406040E1F700C01B
:100B4000000032E0E32E2C9820E030E065E06A956A
:100B5000F1F700002F5F3F4F24173507B9F72C9AA4
:100B600020E030E02817390738F445E04A95F1F7DE
:100B700000002F5F3F4FF6CF019709F067CF5FCF9F
:100B8000019709F497C0489934C02C982B9A6FEFBD
:100B900023ED30E3615020403040E1F700C0000019
:100BA0002B984FEF63ED20E3415060402040E1F788
:100BB00000C000002B9A3FEF43ED60E3315040400E
:100BC0006040E1F700C000002B982FEF33ED40E3C9
:100BD000215030404040E1F700C000002B9A6FEFF9
:100BE0002BE732E9615020403040E1F700C00000BF
:100BF0002B98499934C02C982A9A4FEF63ED20E343
:100C0000415060402040E1F700C000002A983FEFCB
:100C100043ED60E3315040406040E1F700C0000028
:100C20002A9A2FEF33ED40E3215030404040E1F766
:100C300000C000002A986FEF23ED30E361502040A0
:100C40003040E1F700C000002A9A4FEF6BE722E93D
:100C5000415060402040E1F700C000002A984B99C5
:100C60000CC02C983FEF44E36CE0315040406040B2
:100C7000E1F700C0000022E0E22E2C9820E030E0F6
:100C800045E04A95F1F700002F5F3F4F28173907DD
:100C9000B8F32C9A20E030E0A501481B590B24172B
:100CA000350708F06DCF65E06A95F1F700002F5F1A
:100CB0003F4FF5CF82E0E81201C02C9891E0C912B5
:100CC0005DCC61E08AE00E94BD0048991BC02FEF17
:100CD00034E34CE0215030404040E1F700C00000D8
:100CE000D3944AE0BE016F5F7F4F8D2D90E00E944C
:100CF000C906CE0101960E94D9006CE3D61202C04B
:100D0000DD24DA94499925C08FEF94E32CE08150DB
:100D100090402040E1F700C0000061E08CE00E94BC
:100D2000BD008DE891E00E94D90061E08DE00E9455
:100D3000BD000F5F4AE0BE016F5F7F4F802F90E0E4
:100D40000E94C906CE0101960E94D9000C3309F415
:100D50000FEF4B9913CC002309F410CC3FEF43ED78
:100D600060E3315040406040E1F700C0000061E0C6
:100D70008DE00E94BD004AE0BE016F5F7F4F802F73
:100D800090E00E94C906CE0101960E94D900015050
:100D9000E2CFBB274A3031F4992322F4BDE290958B
:100DA00081959F4F0C94D506BB27FB015527AA2799
:100DB000880F991FAA1FA41710F0A41B83955051E8
:100DC000B9F7A05DAA3308F0A95DA193009779F760
:100DD000B111B1931192CB010C94EE06DC01FC0130
:100DE000672F71917723E1F7329704C07C916D935F
:100DF00070836291AE17BF07C8F30895F894FFCFD0
:100E0000416B7475616C6E6920636173005679681B
:100E10002E206F64706F7665646900506F646D6535
:100E20006E75004F64706F63657400566F6C6E79F9
:100E300020736C6F742D3100566F6C6E7920736C5B
:100E40006F742D3200504F44206D656E752D313A10
:100E50002074696D6500504F44206D656E752D33AB
:100E600000706F644D454E552D3100706F644D45D7
:100E70004E552D3200706F644D454E552D33004E4A
:100E80006173746176656E6920636173753A0050B1
:100E90004F44206D656E752D3500504F44206D65B3
:060EA0006E752D36000006
:00000001FF
